{
  "contractName": "School",
  "abi": [
    {
      "inputs": [],
      "stateMutability": "nonpayable",
      "type": "constructor"
    },
    {
      "anonymous": false,
      "inputs": [
        {
          "indexed": false,
          "internalType": "uint256",
          "name": "classId",
          "type": "uint256"
        },
        {
          "indexed": false,
          "internalType": "string",
          "name": "name",
          "type": "string"
        },
        {
          "indexed": false,
          "internalType": "string",
          "name": "className",
          "type": "string"
        },
        {
          "indexed": false,
          "internalType": "string",
          "name": "date",
          "type": "string"
        },
        {
          "indexed": false,
          "internalType": "string",
          "name": "hour",
          "type": "string"
        },
        {
          "indexed": false,
          "internalType": "uint256",
          "name": "chairNumber",
          "type": "uint256"
        }
      ],
      "name": "ClassCreated",
      "type": "event"
    },
    {
      "inputs": [],
      "name": "classCount",
      "outputs": [
        {
          "internalType": "uint256",
          "name": "",
          "type": "uint256"
        }
      ],
      "stateMutability": "view",
      "type": "function",
      "constant": true
    },
    {
      "inputs": [
        {
          "internalType": "uint256",
          "name": "",
          "type": "uint256"
        }
      ],
      "name": "classIds",
      "outputs": [
        {
          "internalType": "uint256",
          "name": "",
          "type": "uint256"
        }
      ],
      "stateMutability": "view",
      "type": "function",
      "constant": true
    },
    {
      "inputs": [
        {
          "internalType": "address",
          "name": "_cahceUserAddress",
          "type": "address"
        }
      ],
      "name": "createCacheUserAddress",
      "outputs": [],
      "stateMutability": "nonpayable",
      "type": "function"
    },
    {
      "inputs": [],
      "name": "getCacheUserAddress",
      "outputs": [
        {
          "internalType": "address",
          "name": "",
          "type": "address"
        }
      ],
      "stateMutability": "view",
      "type": "function",
      "constant": true
    },
    {
      "inputs": [
        {
          "internalType": "address",
          "name": "_address",
          "type": "address"
        },
        {
          "internalType": "string",
          "name": "_name",
          "type": "string"
        },
        {
          "internalType": "string",
          "name": "_surname",
          "type": "string"
        },
        {
          "internalType": "string",
          "name": "_schoolNo",
          "type": "string"
        }
      ],
      "name": "registerStudent",
      "outputs": [],
      "stateMutability": "nonpayable",
      "type": "function"
    },
    {
      "inputs": [
        {
          "internalType": "address",
          "name": "_signUserAddress",
          "type": "address"
        },
        {
          "internalType": "enum School.PersonelType",
          "name": "_personelType",
          "type": "uint8"
        }
      ],
      "name": "signUser",
      "outputs": [],
      "stateMutability": "nonpayable",
      "type": "function"
    },
    {
      "inputs": [
        {
          "internalType": "address",
          "name": "_signUserAddress",
          "type": "address"
        },
        {
          "internalType": "enum School.PersonelType",
          "name": "_personelType",
          "type": "uint8"
        }
      ],
      "name": "signUserControl",
      "outputs": [
        {
          "internalType": "bool",
          "name": "",
          "type": "bool"
        },
        {
          "internalType": "enum School.PersonelType",
          "name": "",
          "type": "uint8"
        }
      ],
      "stateMutability": "view",
      "type": "function",
      "constant": true
    },
    {
      "inputs": [],
      "name": "getSignUser",
      "outputs": [
        {
          "internalType": "address",
          "name": "",
          "type": "address"
        }
      ],
      "stateMutability": "view",
      "type": "function",
      "constant": true
    },
    {
      "inputs": [
        {
          "internalType": "address",
          "name": "_address",
          "type": "address"
        },
        {
          "internalType": "string",
          "name": "_name",
          "type": "string"
        },
        {
          "internalType": "string",
          "name": "_surname",
          "type": "string"
        },
        {
          "internalType": "string",
          "name": "_field",
          "type": "string"
        }
      ],
      "name": "registerTeacher",
      "outputs": [],
      "stateMutability": "nonpayable",
      "type": "function"
    },
    {
      "inputs": [
        {
          "internalType": "string",
          "name": "_name",
          "type": "string"
        },
        {
          "internalType": "string",
          "name": "_className",
          "type": "string"
        },
        {
          "internalType": "string",
          "name": "_date",
          "type": "string"
        },
        {
          "internalType": "string",
          "name": "_hour",
          "type": "string"
        },
        {
          "internalType": "uint256",
          "name": "_chairNumber",
          "type": "uint256"
        }
      ],
      "name": "createClass",
      "outputs": [],
      "stateMutability": "nonpayable",
      "type": "function"
    },
    {
      "inputs": [
        {
          "internalType": "uint256",
          "name": "classId",
          "type": "uint256"
        },
        {
          "internalType": "address",
          "name": "teacherAddress",
          "type": "address"
        }
      ],
      "name": "assignTeacherToClasses",
      "outputs": [],
      "stateMutability": "nonpayable",
      "type": "function"
    },
    {
      "inputs": [],
      "name": "resetStudent",
      "outputs": [],
      "stateMutability": "nonpayable",
      "type": "function"
    },
    {
      "inputs": [
        {
          "internalType": "address",
          "name": "_address",
          "type": "address"
        }
      ],
      "name": "findStudent",
      "outputs": [
        {
          "internalType": "string",
          "name": "",
          "type": "string"
        },
        {
          "internalType": "string",
          "name": "",
          "type": "string"
        },
        {
          "internalType": "string",
          "name": "",
          "type": "string"
        },
        {
          "internalType": "string",
          "name": "",
          "type": "string"
        },
        {
          "internalType": "uint256",
          "name": "",
          "type": "uint256"
        },
        {
          "components": [
            {
              "internalType": "address",
              "name": "studentAddress",
              "type": "address"
            },
            {
              "internalType": "string",
              "name": "name",
              "type": "string"
            },
            {
              "internalType": "string",
              "name": "surname",
              "type": "string"
            },
            {
              "internalType": "string",
              "name": "schoolNo",
              "type": "string"
            },
            {
              "internalType": "uint256",
              "name": "amount",
              "type": "uint256"
            }
          ],
          "internalType": "struct School.Student",
          "name": "",
          "type": "tuple"
        }
      ],
      "stateMutability": "view",
      "type": "function",
      "constant": true
    },
    {
      "inputs": [],
      "name": "assignStudentsToClasses",
      "outputs": [],
      "stateMutability": "nonpayable",
      "type": "function"
    },
    {
      "inputs": [],
      "name": "getAllClasses",
      "outputs": [
        {
          "components": [
            {
              "internalType": "string",
              "name": "name",
              "type": "string"
            },
            {
              "internalType": "string",
              "name": "className",
              "type": "string"
            },
            {
              "internalType": "uint256",
              "name": "chairNumber",
              "type": "uint256"
            },
            {
              "components": [
                {
                  "internalType": "address",
                  "name": "teacherAddress",
                  "type": "address"
                },
                {
                  "internalType": "string",
                  "name": "name",
                  "type": "string"
                },
                {
                  "internalType": "string",
                  "name": "surname",
                  "type": "string"
                },
                {
                  "internalType": "string",
                  "name": "field",
                  "type": "string"
                }
              ],
              "internalType": "struct School.Teacher",
              "name": "teacher",
              "type": "tuple"
            },
            {
              "internalType": "string",
              "name": "date",
              "type": "string"
            },
            {
              "internalType": "string",
              "name": "hour",
              "type": "string"
            },
            {
              "components": [
                {
                  "internalType": "address",
                  "name": "studentAddress",
                  "type": "address"
                },
                {
                  "internalType": "string",
                  "name": "name",
                  "type": "string"
                },
                {
                  "internalType": "string",
                  "name": "surname",
                  "type": "string"
                },
                {
                  "internalType": "string",
                  "name": "schoolNo",
                  "type": "string"
                },
                {
                  "internalType": "uint256",
                  "name": "amount",
                  "type": "uint256"
                }
              ],
              "internalType": "struct School.Student[]",
              "name": "students",
              "type": "tuple[]"
            }
          ],
          "internalType": "struct School.Class[]",
          "name": "",
          "type": "tuple[]"
        }
      ],
      "stateMutability": "view",
      "type": "function",
      "constant": true
    },
    {
      "inputs": [
        {
          "internalType": "uint256",
          "name": "classId",
          "type": "uint256"
        }
      ],
      "name": "getClass",
      "outputs": [
        {
          "internalType": "string",
          "name": "",
          "type": "string"
        },
        {
          "components": [
            {
              "internalType": "address",
              "name": "teacherAddress",
              "type": "address"
            },
            {
              "internalType": "string",
              "name": "name",
              "type": "string"
            },
            {
              "internalType": "string",
              "name": "surname",
              "type": "string"
            },
            {
              "internalType": "string",
              "name": "field",
              "type": "string"
            }
          ],
          "internalType": "struct School.Teacher",
          "name": "",
          "type": "tuple"
        },
        {
          "components": [
            {
              "internalType": "address",
              "name": "studentAddress",
              "type": "address"
            },
            {
              "internalType": "string",
              "name": "name",
              "type": "string"
            },
            {
              "internalType": "string",
              "name": "surname",
              "type": "string"
            },
            {
              "internalType": "string",
              "name": "schoolNo",
              "type": "string"
            },
            {
              "internalType": "uint256",
              "name": "amount",
              "type": "uint256"
            }
          ],
          "internalType": "struct School.Student[]",
          "name": "",
          "type": "tuple[]"
        }
      ],
      "stateMutability": "view",
      "type": "function",
      "constant": true
    },
    {
      "inputs": [],
      "name": "getStudents",
      "outputs": [
        {
          "components": [
            {
              "internalType": "address",
              "name": "studentAddress",
              "type": "address"
            },
            {
              "internalType": "string",
              "name": "name",
              "type": "string"
            },
            {
              "internalType": "string",
              "name": "surname",
              "type": "string"
            },
            {
              "internalType": "string",
              "name": "schoolNo",
              "type": "string"
            },
            {
              "internalType": "uint256",
              "name": "amount",
              "type": "uint256"
            }
          ],
          "internalType": "struct School.Student[]",
          "name": "",
          "type": "tuple[]"
        }
      ],
      "stateMutability": "view",
      "type": "function",
      "constant": true
    },
    {
      "inputs": [
        {
          "internalType": "address",
          "name": "_studentAddress",
          "type": "address"
        }
      ],
      "name": "signStudent",
      "outputs": [],
      "stateMutability": "payable",
      "type": "function",
      "payable": true
    },
    {
      "inputs": [
        {
          "internalType": "address",
          "name": "_address",
          "type": "address"
        }
      ],
      "name": "getStudentInfo",
      "outputs": [
        {
          "components": [
            {
              "internalType": "address",
              "name": "studentAddress",
              "type": "address"
            },
            {
              "internalType": "string",
              "name": "name",
              "type": "string"
            },
            {
              "internalType": "string",
              "name": "surname",
              "type": "string"
            },
            {
              "internalType": "string",
              "name": "schoolNo",
              "type": "string"
            },
            {
              "internalType": "uint256",
              "name": "amount",
              "type": "uint256"
            }
          ],
          "internalType": "struct School.Student",
          "name": "",
          "type": "tuple"
        }
      ],
      "stateMutability": "view",
      "type": "function",
      "constant": true
    },
    {
      "inputs": [
        {
          "internalType": "address",
          "name": "_address",
          "type": "address"
        }
      ],
      "name": "getTeacherInfo",
      "outputs": [
        {
          "components": [
            {
              "internalType": "address",
              "name": "teacherAddress",
              "type": "address"
            },
            {
              "internalType": "string",
              "name": "name",
              "type": "string"
            },
            {
              "internalType": "string",
              "name": "surname",
              "type": "string"
            },
            {
              "internalType": "string",
              "name": "field",
              "type": "string"
            }
          ],
          "internalType": "struct School.Teacher",
          "name": "",
          "type": "tuple"
        }
      ],
      "stateMutability": "view",
      "type": "function",
      "constant": true
    }
  ],
  "bytecode": "0x608060405234801561001057600080fd5b50336000806101000a81548173ffffffffffffffffffffffffffffffffffffffff021916908373ffffffffffffffffffffffffffffffffffffffff160217905550614ea3806100606000396000f3fe60806040526004361061011f5760003560e01c8063880db36d116100a0578063acb1cf6611610064578063acb1cf66146103b5578063b30dcee7146103e0578063bca24bd41461040b578063f1d064b314610448578063fa075693146104735761011f565b8063880db36d14610305578063a3ab58a81461032e578063a45fb16414610345578063a8a51f091461036e578063ab9963171461038a5761011f565b80633b55c392116100e75780633b55c3921461021e5780634b82caec14610235578063512d62df146102725780636bda75dd146102b15780636d8ebb08146102dc5761011f565b8063159574a11461012457806316e13aa8146101615780631b2687f01461018a5780631e91297c146101b357806322dff2bc146101dc575b600080fd5b34801561013057600080fd5b5061014b60048036038101906101469190613dc0565b6104b1565b6040516101589190613f06565b60405180910390f35b34801561016d57600080fd5b5061018860048036038101906101839190613dc0565b6104c9565b005b34801561019657600080fd5b506101b160048036038101906101ac9190613f8d565b61050d565b005b3480156101bf57600080fd5b506101da60048036038101906101d59190613f8d565b61070a565b005b3480156101e857600080fd5b5061020360048036038101906101fe9190613dc0565b61091c565b6040516102159695949392919061414c565b60405180910390f35b34801561022a57600080fd5b50610233610f0e565b005b34801561024157600080fd5b5061025c60048036038101906102579190613dc0565b61110b565b60405161026991906141d0565b60405180910390f35b34801561027e57600080fd5b506102996004803603810190610294919061421e565b611123565b6040516102a893929190614391565b60405180910390f35b3480156102bd57600080fd5b506102c6611675565b6040516102d39190614655565b60405180910390f35b3480156102e857600080fd5b5061030360048036038101906102fe919061469c565b611e46565b005b34801561031157600080fd5b5061032c600480360381019061032791906146dc565b611ee4565b005b34801561033a57600080fd5b50610343611ff0565b005b34801561035157600080fd5b5061036c600480360381019061036791906147d8565b612062565b005b61038860048036038101906103839190613dc0565b612781565b005b34801561039657600080fd5b5061039f6128b8565b6040516103ac9190614818565b60405180910390f35b3480156103c157600080fd5b506103ca6128be565b6040516103d79190614842565b60405180910390f35b3480156103ec57600080fd5b506103f56128e8565b6040516104029190614842565b60405180910390f35b34801561041757600080fd5b50610432600480360381019061042d919061421e565b612912565b60405161043f9190614818565b60405180910390f35b34801561045457600080fd5b5061045d612936565b60405161046a919061485d565b60405180910390f35b34801561047f57600080fd5b5061049a6004803603810190610495919061469c565b612bab565b6040516104a8929190614911565b60405180910390f35b6104b9613a02565b6104c282612c71565b9050919050565b80600260006101000a81548173ffffffffffffffffffffffffffffffffffffffff021916908373ffffffffffffffffffffffffffffffffffffffff16021790555050565b610515613a02565b87816000019073ffffffffffffffffffffffffffffffffffffffff16908173ffffffffffffffffffffffffffffffffffffffff168152505086868080601f016020809104026020016040519081016040528093929190818152602001838380828437600081840152601f19601f82011690508083019250505050505050816020018190525084848080601f016020809104026020016040519081016040528093929190818152602001838380828437600081840152601f19601f82011690508083019250505050505050816040018190525082828080601f016020809104026020016040519081016040528093929190818152602001838380828437600081840152601f19601f820116905080830192505050505050508160600181905250600481908060018154018082558091505060019003906000526020600020906004020160009091909190915060008201518160000160006101000a81548173ffffffffffffffffffffffffffffffffffffffff021916908373ffffffffffffffffffffffffffffffffffffffff16021790555060208201518160010190805190602001906106c3929190613a40565b5060408201518160020190805190602001906106e0929190613a40565b5060608201518160030190805190602001906106fd929190613a40565b5050505050505050505050565b610712613ac6565b87816000019073ffffffffffffffffffffffffffffffffffffffff16908173ffffffffffffffffffffffffffffffffffffffff168152505086868080601f016020809104026020016040519081016040528093929190818152602001838380828437600081840152601f19601f82011690508083019250505050505050816020018190525084848080601f016020809104026020016040519081016040528093929190818152602001838380828437600081840152601f19601f82011690508083019250505050505050816040018190525082828080601f016020809104026020016040519081016040528093929190818152602001838380828437600081840152601f19601f8201169050808301925050505050505081606001819052506000816080018181525050600381908060018154018082558091505060019003906000526020600020906005020160009091909190915060008201518160000160006101000a81548173ffffffffffffffffffffffffffffffffffffffff021916908373ffffffffffffffffffffffffffffffffffffffff16021790555060208201518160010190805190602001906108cb929190613a40565b5060408201518160020190805190602001906108e8929190613a40565b506060820151816003019080519060200190610905929190613a40565b506080820151816004015550505050505050505050565b606080606080600061092c613ac6565b60005b600580549050811015610ec957600060076000600584815481106109565761095561493a565b5b90600052602060002001548152602001908152602001600020905060005b8160090180549050811015610eb4578973ffffffffffffffffffffffffffffffffffffffff168260090182815481106109b0576109af61493a565b5b906000526020600020906005020160000160009054906101000a900473ffffffffffffffffffffffffffffffffffffffff1673ffffffffffffffffffffffffffffffffffffffff1603610ea1576000826009018281548110610a1557610a1461493a565b5b90600052602060002090600502016040518060a00160405290816000820160009054906101000a900473ffffffffffffffffffffffffffffffffffffffff1673ffffffffffffffffffffffffffffffffffffffff1673ffffffffffffffffffffffffffffffffffffffff168152602001600182018054610a9490614998565b80601f0160208091040260200160405190810160405280929190818152602001828054610ac090614998565b8015610b0d5780601f10610ae257610100808354040283529160200191610b0d565b820191906000526020600020905b815481529060010190602001808311610af057829003601f168201915b50505050508152602001600282018054610b2690614998565b80601f0160208091040260200160405190810160405280929190818152602001828054610b5290614998565b8015610b9f5780601f10610b7457610100808354040283529160200191610b9f565b820191906000526020600020905b815481529060010190602001808311610b8257829003601f168201915b50505050508152602001600382018054610bb890614998565b80601f0160208091040260200160405190810160405280929190818152602001828054610be490614998565b8015610c315780601f10610c0657610100808354040283529160200191610c31565b820191906000526020600020905b815481529060010190602001808311610c1457829003601f168201915b50505050508152602001600482015481525050905082600001836001018460070185600801866002015485858054610c6890614998565b80601f0160208091040260200160405190810160405280929190818152602001828054610c9490614998565b8015610ce15780601f10610cb657610100808354040283529160200191610ce1565b820191906000526020600020905b815481529060010190602001808311610cc457829003601f168201915b50505050509550848054610cf490614998565b80601f0160208091040260200160405190810160405280929190818152602001828054610d2090614998565b8015610d6d5780601f10610d4257610100808354040283529160200191610d6d565b820191906000526020600020905b815481529060010190602001808311610d5057829003601f168201915b50505050509450838054610d8090614998565b80601f0160208091040260200160405190810160405280929190818152602001828054610dac90614998565b8015610df95780601f10610dce57610100808354040283529160200191610df9565b820191906000526020600020905b815481529060010190602001808311610ddc57829003601f168201915b50505050509350828054610e0c90614998565b80601f0160208091040260200160405190810160405280929190818152602001828054610e3890614998565b8015610e855780601f10610e5a57610100808354040283529160200191610e85565b820191906000526020600020905b815481529060010190602001808311610e6857829003601f168201915b5050505050925099509950995099509950995050505050610f05565b8080610eac906149f8565b915050610974565b50508080610ec1906149f8565b91505061092f565b506040517f08c379a0000000000000000000000000000000000000000000000000000000008152600401610efc90614a8c565b60405180910390fd5b91939550919395565b6000600380549050905060006005805490509050610f2a612f5c565b610f3261340b565b6000805b8281108015610f4457508382105b156111055760006007600060058481548110610f6357610f6261493a565b5b9060005260206000200154815260200190815260200160002090506000610f948487610f8f9190614aac565b613514565b905060005b8181108015610fa757508685105b156110ef578260090160038681548110610fc457610fc361493a565b5b906000526020600020906005020190806001815401808255809150506001900390600052602060002090600502016000909190919091506000820160009054906101000a900473ffffffffffffffffffffffffffffffffffffffff168160000160006101000a81548173ffffffffffffffffffffffffffffffffffffffff021916908373ffffffffffffffffffffffffffffffffffffffff160217905550600182018160010190805461107690614998565b611081929190613b0b565b50600282018160020190805461109690614998565b6110a1929190613b0b565b5060038201816003019080546110b690614998565b6110c1929190613b0b565b5060048201548160040155505084806110d9906149f8565b95505080806110e7906149f8565b915050610f99565b50505080806110fd906149f8565b915050610f36565b50505050565b611113613ac6565b61111c82613565565b9050919050565b606061112d613a02565b6060600060076000868152602001908152602001600020905080600001816003018260090182805461115e90614998565b80601f016020809104026020016040519081016040528092919081815260200182805461118a90614998565b80156111d75780601f106111ac576101008083540402835291602001916111d7565b820191906000526020600020905b8154815290600101906020018083116111ba57829003601f168201915b50505050509250816040518060800160405290816000820160009054906101000a900473ffffffffffffffffffffffffffffffffffffffff1673ffffffffffffffffffffffffffffffffffffffff1673ffffffffffffffffffffffffffffffffffffffff16815260200160018201805461125090614998565b80601f016020809104026020016040519081016040528092919081815260200182805461127c90614998565b80156112c95780601f1061129e576101008083540402835291602001916112c9565b820191906000526020600020905b8154815290600101906020018083116112ac57829003601f168201915b505050505081526020016002820180546112e290614998565b80601f016020809104026020016040519081016040528092919081815260200182805461130e90614998565b801561135b5780601f106113305761010080835404028352916020019161135b565b820191906000526020600020905b81548152906001019060200180831161133e57829003601f168201915b5050505050815260200160038201805461137490614998565b80601f01602080910402602001604051908101604052809291908181526020018280546113a090614998565b80156113ed5780601f106113c2576101008083540402835291602001916113ed565b820191906000526020600020905b8154815290600101906020018083116113d057829003601f168201915b505050505081525050915080805480602002602001604051908101604052809291908181526020016000905b8282101561166157838290600052602060002090600502016040518060a00160405290816000820160009054906101000a900473ffffffffffffffffffffffffffffffffffffffff1673ffffffffffffffffffffffffffffffffffffffff1673ffffffffffffffffffffffffffffffffffffffff1681526020016001820180546114a290614998565b80601f01602080910402602001604051908101604052809291908181526020018280546114ce90614998565b801561151b5780601f106114f05761010080835404028352916020019161151b565b820191906000526020600020905b8154815290600101906020018083116114fe57829003601f168201915b5050505050815260200160028201805461153490614998565b80601f016020809104026020016040519081016040528092919081815260200182805461156090614998565b80156115ad5780601f10611582576101008083540402835291602001916115ad565b820191906000526020600020905b81548152906001019060200180831161159057829003601f168201915b505050505081526020016003820180546115c690614998565b80601f01602080910402602001604051908101604052809291908181526020018280546115f290614998565b801561163f5780601f106116145761010080835404028352916020019161163f565b820191906000526020600020905b81548152906001019060200180831161162257829003601f168201915b5050505050815260200160048201548152505081526020019060010190611419565b505050509050935093509350509193909250565b6060600060058054905067ffffffffffffffff81111561169857611697614ae0565b5b6040519080825280602002602001820160405280156116d157816020015b6116be613b98565b8152602001906001900390816116b65790505b50905060005b600580549050811015611e3e576000600582815481106116fa576116f961493a565b5b90600052602060002001549050600760008281526020019081526020016000206040518060e001604052908160008201805461173590614998565b80601f016020809104026020016040519081016040528092919081815260200182805461176190614998565b80156117ae5780601f10611783576101008083540402835291602001916117ae565b820191906000526020600020905b81548152906001019060200180831161179157829003601f168201915b505050505081526020016001820180546117c790614998565b80601f01602080910402602001604051908101604052809291908181526020018280546117f390614998565b80156118405780601f1061181557610100808354040283529160200191611840565b820191906000526020600020905b81548152906001019060200180831161182357829003601f168201915b5050505050815260200160028201548152602001600382016040518060800160405290816000820160009054906101000a900473ffffffffffffffffffffffffffffffffffffffff1673ffffffffffffffffffffffffffffffffffffffff1673ffffffffffffffffffffffffffffffffffffffff1681526020016001820180546118c990614998565b80601f01602080910402602001604051908101604052809291908181526020018280546118f590614998565b80156119425780601f1061191757610100808354040283529160200191611942565b820191906000526020600020905b81548152906001019060200180831161192557829003601f168201915b5050505050815260200160028201805461195b90614998565b80601f016020809104026020016040519081016040528092919081815260200182805461198790614998565b80156119d45780601f106119a9576101008083540402835291602001916119d4565b820191906000526020600020905b8154815290600101906020018083116119b757829003601f168201915b505050505081526020016003820180546119ed90614998565b80601f0160208091040260200160405190810160405280929190818152602001828054611a1990614998565b8015611a665780601f10611a3b57610100808354040283529160200191611a66565b820191906000526020600020905b815481529060010190602001808311611a4957829003601f168201915b5050505050815250508152602001600782018054611a8390614998565b80601f0160208091040260200160405190810160405280929190818152602001828054611aaf90614998565b8015611afc5780601f10611ad157610100808354040283529160200191611afc565b820191906000526020600020905b815481529060010190602001808311611adf57829003601f168201915b50505050508152602001600882018054611b1590614998565b80601f0160208091040260200160405190810160405280929190818152602001828054611b4190614998565b8015611b8e5780601f10611b6357610100808354040283529160200191611b8e565b820191906000526020600020905b815481529060010190602001808311611b7157829003601f168201915b5050505050815260200160098201805480602002602001604051908101604052809291908181526020016000905b82821015611e0457838290600052602060002090600502016040518060a00160405290816000820160009054906101000a900473ffffffffffffffffffffffffffffffffffffffff1673ffffffffffffffffffffffffffffffffffffffff1673ffffffffffffffffffffffffffffffffffffffff168152602001600182018054611c4590614998565b80601f0160208091040260200160405190810160405280929190818152602001828054611c7190614998565b8015611cbe5780601f10611c9357610100808354040283529160200191611cbe565b820191906000526020600020905b815481529060010190602001808311611ca157829003601f168201915b50505050508152602001600282018054611cd790614998565b80601f0160208091040260200160405190810160405280929190818152602001828054611d0390614998565b8015611d505780601f10611d2557610100808354040283529160200191611d50565b820191906000526020600020905b815481529060010190602001808311611d3357829003601f168201915b50505050508152602001600382018054611d6990614998565b80601f0160208091040260200160405190810160405280929190818152602001828054611d9590614998565b8015611de25780601f10611db757610100808354040283529160200191611de2565b820191906000526020600020905b815481529060010190602001808311611dc557829003601f168201915b5050505050815260200160048201548152505081526020019060010190611bbc565b5050505081525050838381518110611e1f57611e1e61493a565b5b6020026020010181905250508080611e36906149f8565b9150506116d7565b508091505090565b600080611e538484612bab565b915091508115611ea35783600160006101000a81548173ffffffffffffffffffffffffffffffffffffffff021916908373ffffffffffffffffffffffffffffffffffffffff160217905550611ede565b6040517f08c379a0000000000000000000000000000000000000000000000000000000008152600401611ed590614b5b565b60405180910390fd5b50505050565b600060076000600854815260200190815260200160002090508989826000019190611f10929190613bdb565b508787826001019190611f24929190613bdb565b508181600201819055508585826007019190611f41929190613bdb565b508383826008019190611f55929190613bdb565b50600560085490806001815401808255809150506001900390600052602060002001600090919091909150557f46b50197597f8137270995d2c1474ce5dbf7a1aba765b25e97c7c7b08b96816f6008548b8b8b8b8b8b8b8b8b604051611fc49a99989796959493929190614bb7565b60405180910390a160086000815480929190611fdf906149f8565b919050555050505050505050505050565b6000600580549050905060005b8181101561205e576000600760006005848154811061201f5761201e61493a565b5b90600052602060002001548152602001908152602001600020905080600901600061204a9190613c61565b508080612056906149f8565b915050611ffd565b5050565b6000600760008481526020019081526020016000206040518060e001604052908160008201805461209290614998565b80601f01602080910402602001604051908101604052809291908181526020018280546120be90614998565b801561210b5780601f106120e05761010080835404028352916020019161210b565b820191906000526020600020905b8154815290600101906020018083116120ee57829003601f168201915b5050505050815260200160018201805461212490614998565b80601f016020809104026020016040519081016040528092919081815260200182805461215090614998565b801561219d5780601f106121725761010080835404028352916020019161219d565b820191906000526020600020905b81548152906001019060200180831161218057829003601f168201915b5050505050815260200160028201548152602001600382016040518060800160405290816000820160009054906101000a900473ffffffffffffffffffffffffffffffffffffffff1673ffffffffffffffffffffffffffffffffffffffff1673ffffffffffffffffffffffffffffffffffffffff16815260200160018201805461222690614998565b80601f016020809104026020016040519081016040528092919081815260200182805461225290614998565b801561229f5780601f106122745761010080835404028352916020019161229f565b820191906000526020600020905b81548152906001019060200180831161228257829003601f168201915b505050505081526020016002820180546122b890614998565b80601f01602080910402602001604051908101604052809291908181526020018280546122e490614998565b80156123315780601f1061230657610100808354040283529160200191612331565b820191906000526020600020905b81548152906001019060200180831161231457829003601f168201915b5050505050815260200160038201805461234a90614998565b80601f016020809104026020016040519081016040528092919081815260200182805461237690614998565b80156123c35780601f10612398576101008083540402835291602001916123c3565b820191906000526020600020905b8154815290600101906020018083116123a657829003601f168201915b50505050508152505081526020016007820180546123e090614998565b80601f016020809104026020016040519081016040528092919081815260200182805461240c90614998565b80156124595780601f1061242e57610100808354040283529160200191612459565b820191906000526020600020905b81548152906001019060200180831161243c57829003601f168201915b5050505050815260200160088201805461247290614998565b80601f016020809104026020016040519081016040528092919081815260200182805461249e90614998565b80156124eb5780601f106124c0576101008083540402835291602001916124eb565b820191906000526020600020905b8154815290600101906020018083116124ce57829003601f168201915b5050505050815260200160098201805480602002602001604051908101604052809291908181526020016000905b8282101561276157838290600052602060002090600502016040518060a00160405290816000820160009054906101000a900473ffffffffffffffffffffffffffffffffffffffff1673ffffffffffffffffffffffffffffffffffffffff1673ffffffffffffffffffffffffffffffffffffffff1681526020016001820180546125a290614998565b80601f01602080910402602001604051908101604052809291908181526020018280546125ce90614998565b801561261b5780601f106125f05761010080835404028352916020019161261b565b820191906000526020600020905b8154815290600101906020018083116125fe57829003601f168201915b5050505050815260200160028201805461263490614998565b80601f016020809104026020016040519081016040528092919081815260200182805461266090614998565b80156126ad5780601f10612682576101008083540402835291602001916126ad565b820191906000526020600020905b81548152906001019060200180831161269057829003601f168201915b505050505081526020016003820180546126c690614998565b80601f01602080910402602001604051908101604052809291908181526020018280546126f290614998565b801561273f5780601f106127145761010080835404028352916020019161273f565b820191906000526020600020905b81548152906001019060200180831161272257829003601f168201915b5050505050815260200160048201548152505081526020019060010190612519565b50505050815250509050612774826104b1565b8160600181905250505050565b60008061278d83613894565b91509150816127d1576040517f08c379a00000000000000000000000000000000000000000000000000000000081526004016127c890614c88565b60405180910390fd5b600381815481106127e5576127e461493a565b5b906000526020600020906005020160000160009054906101000a900473ffffffffffffffffffffffffffffffffffffffff1673ffffffffffffffffffffffffffffffffffffffff166108fc6103e83461283e9190614cd7565b9081150290604051600060405180830381858888f19350505050158015612869573d6000803e3d6000fd5b506103e8346128789190614cd7565b6003828154811061288c5761288b61493a565b5b906000526020600020906005020160040160008282546128ac9190614d08565b92505081905550505050565b60085481565b6000600260009054906101000a900473ffffffffffffffffffffffffffffffffffffffff16905090565b6000600160009054906101000a900473ffffffffffffffffffffffffffffffffffffffff16905090565b6005818154811061292257600080fd5b906000526020600020016000915090505481565b60606003805480602002602001604051908101604052809291908181526020016000905b82821015612ba257838290600052602060002090600502016040518060a00160405290816000820160009054906101000a900473ffffffffffffffffffffffffffffffffffffffff1673ffffffffffffffffffffffffffffffffffffffff1673ffffffffffffffffffffffffffffffffffffffff1681526020016001820180546129e390614998565b80601f0160208091040260200160405190810160405280929190818152602001828054612a0f90614998565b8015612a5c5780601f10612a3157610100808354040283529160200191612a5c565b820191906000526020600020905b815481529060010190602001808311612a3f57829003601f168201915b50505050508152602001600282018054612a7590614998565b80601f0160208091040260200160405190810160405280929190818152602001828054612aa190614998565b8015612aee5780601f10612ac357610100808354040283529160200191612aee565b820191906000526020600020905b815481529060010190602001808311612ad157829003601f168201915b50505050508152602001600382018054612b0790614998565b80601f0160208091040260200160405190810160405280929190818152602001828054612b3390614998565b8015612b805780601f10612b5557610100808354040283529160200191612b80565b820191906000526020600020905b815481529060010190602001808311612b6357829003601f168201915b505050505081526020016004820154815250508152602001906001019061295a565b50505050905090565b60008060006002811115612bc257612bc161489a565b5b836002811115612bd557612bd461489a565b5b03612c0257612be38461394d565b15612bf5576001600091509150612c6a565b6000600291509150612c6a565b60016002811115612c1657612c1561489a565b5b836002811115612c2957612c2861489a565b5b03612c6157600080612c3a86613894565b915091508115612c5257600180935093505050612c6a565b60006002935093505050612c6a565b60006002915091505b9250929050565b612c79613a02565b60005b600480549050811015612f55578273ffffffffffffffffffffffffffffffffffffffff1660048281548110612cb457612cb361493a565b5b906000526020600020906004020160000160009054906101000a900473ffffffffffffffffffffffffffffffffffffffff1673ffffffffffffffffffffffffffffffffffffffff1603612f425760048181548110612d1557612d1461493a565b5b90600052602060002090600402016040518060800160405290816000820160009054906101000a900473ffffffffffffffffffffffffffffffffffffffff1673ffffffffffffffffffffffffffffffffffffffff1673ffffffffffffffffffffffffffffffffffffffff168152602001600182018054612d9490614998565b80601f0160208091040260200160405190810160405280929190818152602001828054612dc090614998565b8015612e0d5780601f10612de257610100808354040283529160200191612e0d565b820191906000526020600020905b815481529060010190602001808311612df057829003601f168201915b50505050508152602001600282018054612e2690614998565b80601f0160208091040260200160405190810160405280929190818152602001828054612e5290614998565b8015612e9f5780601f10612e7457610100808354040283529160200191612e9f565b820191906000526020600020905b815481529060010190602001808311612e8257829003601f168201915b50505050508152602001600382018054612eb890614998565b80601f0160208091040260200160405190810160405280929190818152602001828054612ee490614998565b8015612f315780601f10612f0657610100808354040283529160200191612f31565b820191906000526020600020905b815481529060010190602001808311612f1457829003601f168201915b505050505081525050915050612f57565b8080612f4d906149f8565b915050612c7c565b505b919050565b600060038054905090505b6001811115613408578080612f7b90614d5e565b9150506000600182612f8d9190614d08565b43600143612f9b9190614aac565b4084604051602001612faf93929190614dd3565b6040516020818303038152906040528051906020012060001c612fd29190614e10565b9050600060038281548110612fea57612fe961493a565b5b90600052602060002090600502016040518060a00160405290816000820160009054906101000a900473ffffffffffffffffffffffffffffffffffffffff1673ffffffffffffffffffffffffffffffffffffffff1673ffffffffffffffffffffffffffffffffffffffff16815260200160018201805461306990614998565b80601f016020809104026020016040519081016040528092919081815260200182805461309590614998565b80156130e25780601f106130b7576101008083540402835291602001916130e2565b820191906000526020600020905b8154815290600101906020018083116130c557829003601f168201915b505050505081526020016002820180546130fb90614998565b80601f016020809104026020016040519081016040528092919081815260200182805461312790614998565b80156131745780601f1061314957610100808354040283529160200191613174565b820191906000526020600020905b81548152906001019060200180831161315757829003601f168201915b5050505050815260200160038201805461318d90614998565b80601f01602080910402602001604051908101604052809291908181526020018280546131b990614998565b80156132065780601f106131db57610100808354040283529160200191613206565b820191906000526020600020905b8154815290600101906020018083116131e957829003601f168201915b5050505050815260200160048201548152505090506003838154811061322f5761322e61493a565b5b9060005260206000209060050201600383815481106132515761325061493a565b5b90600052602060002090600502016000820160009054906101000a900473ffffffffffffffffffffffffffffffffffffffff168160000160006101000a81548173ffffffffffffffffffffffffffffffffffffffff021916908373ffffffffffffffffffffffffffffffffffffffff16021790555060018201816001019080546132da90614998565b6132e5929190613b0b565b5060028201816002019080546132fa90614998565b613305929190613b0b565b50600382018160030190805461331a90614998565b613325929190613b0b565b506004820154816004015590505080600384815481106133485761334761493a565b5b906000526020600020906005020160008201518160000160006101000a81548173ffffffffffffffffffffffffffffffffffffffff021916908373ffffffffffffffffffffffffffffffffffffffff16021790555060208201518160010190805190602001906133b9929190613a40565b5060408201518160020190805190602001906133d6929190613a40565b5060608201518160030190805190602001906133f3929190613a40565b50608082015181600401559050505050612f67565b50565b600060058054905090505b600181111561351157808061342a90614d5e565b915050600060018261343c9190614d08565b4360014361344a9190614aac565b408460405160200161345e93929190614dd3565b6040516020818303038152906040528051906020012060001c6134819190614e10565b90506000600582815481106134995761349861493a565b5b90600052602060002001549050600583815481106134ba576134b961493a565b5b9060005260206000200154600583815481106134d9576134d861493a565b5b906000526020600020018190555080600584815481106134fc576134fb61493a565b5b90600052602060002001819055505050613416565b50565b600080600183424460405160200161352d929190614e41565b6040516020818303038152906040528051906020012060001c6135509190614e10565b61355a9190614d08565b905080915050919050565b61356d613ac6565b60005b600380549050811015613853578273ffffffffffffffffffffffffffffffffffffffff16600382815481106135a8576135a761493a565b5b906000526020600020906005020160000160009054906101000a900473ffffffffffffffffffffffffffffffffffffffff1673ffffffffffffffffffffffffffffffffffffffff160361384057600381815481106136095761360861493a565b5b90600052602060002090600502016040518060a00160405290816000820160009054906101000a900473ffffffffffffffffffffffffffffffffffffffff1673ffffffffffffffffffffffffffffffffffffffff1673ffffffffffffffffffffffffffffffffffffffff16815260200160018201805461368890614998565b80601f01602080910402602001604051908101604052809291908181526020018280546136b490614998565b80156137015780601f106136d657610100808354040283529160200191613701565b820191906000526020600020905b8154815290600101906020018083116136e457829003601f168201915b5050505050815260200160028201805461371a90614998565b80601f016020809104026020016040519081016040528092919081815260200182805461374690614998565b80156137935780601f1061376857610100808354040283529160200191613793565b820191906000526020600020905b81548152906001019060200180831161377657829003601f168201915b505050505081526020016003820180546137ac90614998565b80601f01602080910402602001604051908101604052809291908181526020018280546137d890614998565b80156138255780601f106137fa57610100808354040283529160200191613825565b820191906000526020600020905b81548152906001019060200180831161380857829003601f168201915b5050505050815260200160048201548152505091505061388f565b808061384b906149f8565b915050613570565b506040517f08c379a000000000000000000000000000000000000000000000000000000000815260040161388690614c88565b60405180910390fd5b919050565b60008060005b60038054905081101561393f578373ffffffffffffffffffffffffffffffffffffffff16600382815481106138d2576138d161493a565b5b906000526020600020906005020160000160009054906101000a900473ffffffffffffffffffffffffffffffffffffffff1673ffffffffffffffffffffffffffffffffffffffff160361392c576001819250925050613948565b8080613937906149f8565b91505061389a565b50600080915091505b915091565b600080600090505b6004805490508110156139f7578273ffffffffffffffffffffffffffffffffffffffff166004828154811061398d5761398c61493a565b5b906000526020600020906004020160000160009054906101000a900473ffffffffffffffffffffffffffffffffffffffff1673ffffffffffffffffffffffffffffffffffffffff16036139e45760019150506139fd565b80806139ef906149f8565b915050613955565b50600090505b919050565b6040518060800160405280600073ffffffffffffffffffffffffffffffffffffffff1681526020016060815260200160608152602001606081525090565b828054613a4c90614998565b90600052602060002090601f016020900481019282613a6e5760008555613ab5565b82601f10613a8757805160ff1916838001178555613ab5565b82800160010185558215613ab5579182015b82811115613ab4578251825591602001919060010190613a99565b5b509050613ac29190613c85565b5090565b6040518060a00160405280600073ffffffffffffffffffffffffffffffffffffffff168152602001606081526020016060815260200160608152602001600081525090565b828054613b1790614998565b90600052602060002090601f016020900481019282613b395760008555613b87565b82601f10613b4a5780548555613b87565b82800160010185558215613b8757600052602060002091601f016020900482015b82811115613b86578254825591600101919060010190613b6b565b5b509050613b949190613c85565b5090565b6040518060e00160405280606081526020016060815260200160008152602001613bc0613a02565b81526020016060815260200160608152602001606081525090565b828054613be790614998565b90600052602060002090601f016020900481019282613c095760008555613c50565b82601f10613c2257803560ff1916838001178555613c50565b82800160010185558215613c50579182015b82811115613c4f578235825591602001919060010190613c34565b5b509050613c5d9190613c85565b5090565b5080546000825560050290600052602060002090810190613c829190613ca2565b50565b5b80821115613c9e576000816000905550600101613c86565b5090565b5b80821115613d1457600080820160006101000a81549073ffffffffffffffffffffffffffffffffffffffff0219169055600182016000613ce39190613d18565b600282016000613cf39190613d18565b600382016000613d039190613d18565b600482016000905550600501613ca3565b5090565b508054613d2490614998565b6000825580601f10613d365750613d55565b601f016020900490600052602060002090810190613d549190613c85565b5b50565b600080fd5b600080fd5b600073ffffffffffffffffffffffffffffffffffffffff82169050919050565b6000613d8d82613d62565b9050919050565b613d9d81613d82565b8114613da857600080fd5b50565b600081359050613dba81613d94565b92915050565b600060208284031215613dd657613dd5613d58565b5b6000613de484828501613dab565b91505092915050565b613df681613d82565b82525050565b600081519050919050565b600082825260208201905092915050565b60005b83811015613e36578082015181840152602081019050613e1b565b83811115613e45576000848401525b50505050565b6000601f19601f8301169050919050565b6000613e6782613dfc565b613e718185613e07565b9350613e81818560208601613e18565b613e8a81613e4b565b840191505092915050565b6000608083016000830151613ead6000860182613ded565b5060208301518482036020860152613ec58282613e5c565b91505060408301518482036040860152613edf8282613e5c565b91505060608301518482036060860152613ef98282613e5c565b9150508091505092915050565b60006020820190508181036000830152613f208184613e95565b905092915050565b600080fd5b600080fd5b600080fd5b60008083601f840112613f4d57613f4c613f28565b5b8235905067ffffffffffffffff811115613f6a57613f69613f2d565b5b602083019150836001820283011115613f8657613f85613f32565b5b9250929050565b60008060008060008060006080888a031215613fac57613fab613d58565b5b6000613fba8a828b01613dab565b975050602088013567ffffffffffffffff811115613fdb57613fda613d5d565b5b613fe78a828b01613f37565b9650965050604088013567ffffffffffffffff81111561400a57614009613d5d565b5b6140168a828b01613f37565b9450945050606088013567ffffffffffffffff81111561403957614038613d5d565b5b6140458a828b01613f37565b925092505092959891949750929550565b600082825260208201905092915050565b600061407282613dfc565b61407c8185614056565b935061408c818560208601613e18565b61409581613e4b565b840191505092915050565b6000819050919050565b6140b3816140a0565b82525050565b6140c2816140a0565b82525050565b600060a0830160008301516140e06000860182613ded565b50602083015184820360208601526140f88282613e5c565b915050604083015184820360408601526141128282613e5c565b9150506060830151848203606086015261412c8282613e5c565b915050608083015161414160808601826140b9565b508091505092915050565b600060c08201905081810360008301526141668189614067565b9050818103602083015261417a8188614067565b9050818103604083015261418e8187614067565b905081810360608301526141a28186614067565b90506141b160808301856140aa565b81810360a08301526141c381846140c8565b9050979650505050505050565b600060208201905081810360008301526141ea81846140c8565b905092915050565b6141fb816140a0565b811461420657600080fd5b50565b600081359050614218816141f2565b92915050565b60006020828403121561423457614233613d58565b5b600061424284828501614209565b91505092915050565b600081519050919050565b600082825260208201905092915050565b6000819050602082019050919050565b600060a08301600083015161428f6000860182613ded565b50602083015184820360208601526142a78282613e5c565b915050604083015184820360408601526142c18282613e5c565b915050606083015184820360608601526142db8282613e5c565b91505060808301516142f060808601826140b9565b508091505092915050565b60006143078383614277565b905092915050565b6000602082019050919050565b60006143278261424b565b6143318185614256565b93508360208202850161434385614267565b8060005b8581101561437f578484038952815161436085826142fb565b945061436b8361430f565b925060208a01995050600181019050614347565b50829750879550505050505092915050565b600060608201905081810360008301526143ab8186614067565b905081810360208301526143bf8185613e95565b905081810360408301526143d3818461431c565b9050949350505050565b600081519050919050565b600082825260208201905092915050565b6000819050602082019050919050565b60006080830160008301516144216000860182613ded565b50602083015184820360208601526144398282613e5c565b915050604083015184820360408601526144538282613e5c565b9150506060830151848203606086015261446d8282613e5c565b9150508091505092915050565b600082825260208201905092915050565b60006144968261424b565b6144a0818561447a565b9350836020820285016144b285614267565b8060005b858110156144ee57848403895281516144cf85826142fb565b94506144da8361430f565b925060208a019950506001810190506144b6565b50829750879550505050505092915050565b600060e083016000830151848203600086015261451d8282613e5c565b915050602083015184820360208601526145378282613e5c565b915050604083015161454c60408601826140b9565b50606083015184820360608601526145648282614409565b9150506080830151848203608086015261457e8282613e5c565b91505060a083015184820360a08601526145988282613e5c565b91505060c083015184820360c08601526145b2828261448b565b9150508091505092915050565b60006145cb8383614500565b905092915050565b6000602082019050919050565b60006145eb826143dd565b6145f581856143e8565b935083602082028501614607856143f9565b8060005b85811015614643578484038952815161462485826145bf565b945061462f836145d3565b925060208a0199505060018101905061460b565b50829750879550505050505092915050565b6000602082019050818103600083015261466f81846145e0565b905092915050565b6003811061468457600080fd5b50565b60008135905061469681614677565b92915050565b600080604083850312156146b3576146b2613d58565b5b60006146c185828601613dab565b92505060206146d285828601614687565b9150509250929050565b600080600080600080600080600060a08a8c0312156146fe576146fd613d58565b5b60008a013567ffffffffffffffff81111561471c5761471b613d5d565b5b6147288c828d01613f37565b995099505060208a013567ffffffffffffffff81111561474b5761474a613d5d565b5b6147578c828d01613f37565b975097505060408a013567ffffffffffffffff81111561477a57614779613d5d565b5b6147868c828d01613f37565b955095505060608a013567ffffffffffffffff8111156147a9576147a8613d5d565b5b6147b58c828d01613f37565b935093505060806147c88c828d01614209565b9150509295985092959850929598565b600080604083850312156147ef576147ee613d58565b5b60006147fd85828601614209565b925050602061480e85828601613dab565b9150509250929050565b600060208201905061482d60008301846140aa565b92915050565b61483c81613d82565b82525050565b60006020820190506148576000830184614833565b92915050565b60006020820190508181036000830152614877818461431c565b905092915050565b60008115159050919050565b6148948161487f565b82525050565b7f4e487b7100000000000000000000000000000000000000000000000000000000600052602160045260246000fd5b600381106148da576148d961489a565b5b50565b60008190506148eb826148c9565b919050565b60006148fb826148dd565b9050919050565b61490b816148f0565b82525050565b6000604082019050614926600083018561488b565b6149336020830184614902565b9392505050565b7f4e487b7100000000000000000000000000000000000000000000000000000000600052603260045260246000fd5b7f4e487b7100000000000000000000000000000000000000000000000000000000600052602260045260246000fd5b600060028204905060018216806149b057607f821691505b6020821081036149c3576149c2614969565b5b50919050565b7f4e487b7100000000000000000000000000000000000000000000000000000000600052601160045260246000fd5b6000614a03826140a0565b91507fffffffffffffffffffffffffffffffffffffffffffffffffffffffffffffffff8203614a3557614a346149c9565b5b600182019050919050565b7f53747564656e74206e6f7420666f756e6420696e20616e7920636c6173730000600082015250565b6000614a76601e83614056565b9150614a8182614a40565b602082019050919050565b60006020820190508181036000830152614aa581614a69565b9050919050565b6000614ab7826140a0565b9150614ac2836140a0565b925082821015614ad557614ad46149c9565b5b828203905092915050565b7f4e487b7100000000000000000000000000000000000000000000000000000000600052604160045260246000fd5b7f706572736f6e656c206973206e6f7420666f756e640000000000000000000000600082015250565b6000614b45601583614056565b9150614b5082614b0f565b602082019050919050565b60006020820190508181036000830152614b7481614b38565b9050919050565b82818337600083830152505050565b6000614b968385614056565b9350614ba3838584614b7b565b614bac83613e4b565b840190509392505050565b600060c082019050614bcc600083018d6140aa565b8181036020830152614bdf818b8d614b8a565b90508181036040830152614bf481898b614b8a565b90508181036060830152614c09818789614b8a565b90508181036080830152614c1e818587614b8a565b9050614c2d60a08301846140aa565b9b9a5050505050505050505050565b7f53747564656e74206e6f7420666f756e64000000000000000000000000000000600082015250565b6000614c72601183614056565b9150614c7d82614c3c565b602082019050919050565b60006020820190508181036000830152614ca181614c65565b9050919050565b7f4e487b7100000000000000000000000000000000000000000000000000000000600052601260045260246000fd5b6000614ce2826140a0565b9150614ced836140a0565b925082614cfd57614cfc614ca8565b5b828204905092915050565b6000614d13826140a0565b9150614d1e836140a0565b9250827fffffffffffffffffffffffffffffffffffffffffffffffffffffffffffffffff03821115614d5357614d526149c9565b5b828201905092915050565b6000614d69826140a0565b915060008203614d7c57614d7b6149c9565b5b600182039050919050565b6000819050919050565b614da2614d9d826140a0565b614d87565b82525050565b6000819050919050565b6000819050919050565b614dcd614dc882614da8565b614db2565b82525050565b6000614ddf8286614d91565b602082019150614def8285614dbc565b602082019150614dff8284614d91565b602082019150819050949350505050565b6000614e1b826140a0565b9150614e26836140a0565b925082614e3657614e35614ca8565b5b828206905092915050565b6000614e4d8285614d91565b602082019150614e5d8284614d91565b602082019150819050939250505056fea26469706673582212206a9fafe8c962ecd9af75f53214f4013605613c70a704beade637cadc91e7f3b364736f6c634300080d0033",
  "immutableReferences": {},
  "source": "// SPDX-License-Identifier: MIT\npragma solidity >=0.8.0 <0.9.0;\n\ncontract School {\n   \n    enum PersonelType {\n        TEACHER,\n        STUDENT,\n        NONE\n    }\n    struct Student {\n        address studentAddress;\n        string name;\n        string surname;\n        string schoolNo;\n        uint amount;\n    }\n\n    struct Teacher {\n        address teacherAddress;\n        string name;\n        string surname;\n        string field;\n    }\n\n    struct Class {\n        string name;\n        string className;\n        uint chairNumber;\n        Teacher teacher;\n        string date;\n        string hour;\n        Student[] students;\n    }\n    \n\n\n    address owner;\n    address signUserAddress;\n    address cahceUserAddress;\n    Student[] students;\n    Teacher[] teachers;\n    uint[] public classIds;\n    bool isFound;\n    mapping (uint => Class) classes; \n    uint public classCount;\n\n    event ClassCreated(uint classId, string name, string className, string date, string hour, uint chairNumber);\n    constructor() {\n        owner = msg.sender;\n    }\n\n    function createCacheUserAddress(address _cahceUserAddress) public  {\n        cahceUserAddress = _cahceUserAddress;\n    }\n\n    function getCacheUserAddress() public view returns(address) {\n        return cahceUserAddress;\n    }\n\n    function registerStudent(address _address, string calldata _name, string calldata _surname, string calldata _schoolNo) public {\n        Student memory student;\n        student.studentAddress = _address;\n        student.name = _name;\n        student.surname = _surname;\n        student.schoolNo = _schoolNo;\n        student.amount = 0;\n        students.push(student);\n    }\n\n    function signUser(address _signUserAddress,PersonelType _personelType) public {\n       (bool isPersonel,PersonelType personel) = signUserControl(_signUserAddress,_personelType);\n       if(isPersonel) {\n            signUserAddress = _signUserAddress;\n       }\n       else {\n           revert(\"personel is not found\");\n       }\n    }\n\n    function signUserControl(address _signUserAddress,PersonelType _personelType) public view returns(bool,PersonelType) {\n        if(_personelType == PersonelType.TEACHER) {\n            if(isTeacher(_signUserAddress)) {\n                return (true,PersonelType.TEACHER);\n            }\n            return (false,PersonelType.NONE);\n        }\n        if(_personelType == PersonelType.STUDENT) {\n            (bool _isStudent,uint index) = isStudent(_signUserAddress);\n            if(_isStudent) {\n                return (true,PersonelType.STUDENT);\n            }\n            return (false,PersonelType.NONE);\n        }\n        return (false,PersonelType.NONE);\n    }\n\n    function getSignUser() public view returns(address) {\n        return signUserAddress;\n    }\n\n    function registerTeacher(address _address, string calldata _name, string calldata _surname, string calldata _field) public {\n        Teacher memory teacher;\n        teacher.teacherAddress = _address;\n        teacher.name = _name;\n        teacher.surname = _surname;\n        teacher.field = _field;\n        teachers.push(teacher);\n    }\n \n    function createClass(string calldata _name,string calldata _className,string calldata _date,string calldata _hour,uint _chairNumber) public {\n        Class storage newClass = classes[classCount];\n        newClass.name = _name;\n        newClass.className = _className;\n        newClass.chairNumber = _chairNumber;\n        newClass.date = _date;\n        newClass.hour = _hour;\n        classIds.push(classCount);\n        emit ClassCreated(classCount, _name, _className, _date, _hour, _chairNumber);\n        classCount++;\n    }\n    function assignTeacherToClasses(uint classId,address teacherAddress) public {\n        Class memory class = classes[classId];\n        class.teacher = getTeacherInfo(teacherAddress);\n        \n    }\n    function resetStudent() public {\n        uint numClasses = classIds.length;\n        for(uint i = 0;i<numClasses;i++) {\n            Class storage currentClass = classes[classIds[i]];\n            delete currentClass.students;\n        }\n    }\n\n function findStudent(address _address) public view returns (string memory, string memory, string memory, string memory, uint, Student memory) {\n        for (uint i = 0; i < classIds.length; i++) {\n            Class storage currentClass = classes[classIds[i]];\n            for (uint j = 0; j < currentClass.students.length; j++) {\n                if (currentClass.students[j].studentAddress == _address) {\n                    Student memory foundStudent = currentClass.students[j];\n                    return (\n                        currentClass.name,\n                        currentClass.className,\n                        currentClass.date,\n                        currentClass.hour,\n                        currentClass.chairNumber,\n                        foundStudent\n                    );\n                }\n            }\n        }\n        revert(\"Student not found in any class\");\n    }\n    function assignStudentsToClasses() public {\n        uint numStudents = students.length;\n        uint numClasses = classIds.length;\n        shuffleStudents(); \n        shuffleClasses(); \n        uint studentIndex = 0;\n        for (uint i = 0; i < numClasses && studentIndex < numStudents; i++) {\n            Class storage currentClass = classes[classIds[i]];\n            uint numToAdd = getRandomNumber(numStudents - studentIndex); \n            for (uint j = 0; j < numToAdd && studentIndex < numStudents; j++) {\n                currentClass.students.push(students[studentIndex]);\n                studentIndex++;\n            }\n        }\n    }\n\n    function getAllClasses() public view returns (Class[] memory) {\n        Class[] memory allClasses = new Class[](classIds.length);\n        for (uint i = 0; i < classIds.length; i++) {\n            uint classId = classIds[i];\n            allClasses[i] = classes[classId];\n        }\n        return allClasses;\n    }\n\n    function getClass(uint classId) public view returns (string memory, Teacher memory, Student[] memory) {\n        Class storage classInfo = classes[classId];\n        return (classInfo.name, classInfo.teacher, classInfo.students);\n    }\n\n    function getStudents() public view returns (Student[] memory) {\n        return students;\n    }\n\n    function signStudent(address _studentAddress) payable public {\n        (bool isControl, uint index) = isStudent(_studentAddress);\n        require(isControl, \"Student not found\");\n        payable(students[index].studentAddress).transfer(msg.value / 1000);\n        students[index].amount += msg.value / 1000;\n    }\n\n    function isStudent(address _address) internal view returns (bool, uint) {\n        for (uint i = 0; i < students.length; i++) {\n            if (students[i].studentAddress == _address) {\n                return (true, i);\n            }\n        }\n        return (false, 0);\n    }\n    function isTeacher(address _address) internal view returns (bool) {\n        for (uint i = 0; i < teachers.length; i++) {\n            if(teachers[i].teacherAddress == _address) {\n                return true;\n            }\n        }\n        return false;\n    }\n\n    function getStudentInfo(address _address) public view returns (Student memory) {\n        return studentInfo(_address);\n    }\n\n    function getTeacherInfo(address _address) public view returns(Teacher memory) {\n        return teacherInfo(_address);\n    }\n\n    function studentInfo(address _address) internal view returns (Student memory) {\n        for (uint i = 0; i < students.length; i++) {\n            if (students[i].studentAddress == _address) {\n                return (students[i]);\n            }\n        }\n        revert(\"Student not found\");\n    }\n    function teacherInfo(address _address) internal view returns(Teacher memory) {\n        for(uint i = 0;i<teachers.length;i++) {\n        if(teachers[i].teacherAddress == _address) {\n            return (teachers[i]);\n        }\n    }\n    }\n\n    function shuffleStudents() internal {\n        uint n = students.length;\n        while (n > 1) {\n            n--;\n            uint randIndex = uint(keccak256(abi.encodePacked(block.number, blockhash(block.number - 1), n))) % (n + 1);\n            Student memory temp = students[randIndex];\n            students[randIndex] = students[n];\n            students[n] = temp;\n        }\n    }\n\n    function shuffleClasses() internal {\n        uint n = classIds.length;\n        while (n > 1) {\n            n--;\n            uint randIndex = uint(keccak256(abi.encodePacked(block.number, blockhash(block.number - 1), n))) % (n + 1);\n            uint temp = classIds[randIndex];\n            classIds[randIndex] = classIds[n];\n            classIds[n] = temp;\n        }\n    }\n\n    function getRandomNumber(uint max) private view returns (uint) {\n        uint randomNumber = uint(keccak256(abi.encodePacked(block.timestamp, block.difficulty))) % max + 1;\n        return randomNumber;\n    }\n}\n\n",
  "sourcePath": "/home/radeonares/Project/Jobs/schoolOtomation/schoolAutomation/schoolContract/contracts/school.sol",
  "compiler": {
    "name": "solc",
    "version": "0.8.13+commit.abaa5c0e.Emscripten.clang"
  },
  "schemaVersion": "3.4.16",
  "updatedAt": "2024-05-21T14:00:05.902Z",
  "networkType": "ethereum",
  "devdoc": {
    "kind": "dev",
    "methods": {},
    "version": 1
  },
  "userdoc": {
    "kind": "user",
    "methods": {},
    "version": 1
  }
}